{
  "transactions": [
    {
      "hash": "0x45ff03ca9a9395b5c69ec0fe7eb4a918870ba85e65e43639f528828b21fe7165",
      "transactionType": "CALL",
      "contractName": null,
      "contractAddress": "0x779877a7b0d9e8603169ddbd7836e478b4624789",
      "function": "transferAndCall(address,uint256,bytes)",
      "arguments": [
        "0x9DdfaCa8183c41ad55329BdeeD9F6A8d53168B1B",
        "3000000000000000000",
        "0x61bd854a87527c64aab59e536e0b97c13e8a221a93aae62cee425a7389d3a15e"
      ],
      "transaction": {
        "from": "0xc8e71f572cb1d509b4a905a2d424bddfdea9ace0",
        "to": "0x779877a7b0d9e8603169ddbd7836e478b4624789",
        "gas": "0x1c1ff",
        "value": "0x0",
        "input": "0x4000aea00000000000000000000000009ddfaca8183c41ad55329bdeed9f6a8d53168b1b00000000000000000000000000000000000000000000000029a2241af62c00000000000000000000000000000000000000000000000000000000000000000060000000000000000000000000000000000000000000000000000000000000002061bd854a87527c64aab59e536e0b97c13e8a221a93aae62cee425a7389d3a15e",
        "nonce": "0x14",
        "chainId": "0xaa36a7"
      },
      "additionalContracts": [],
      "isFixedGasLimit": false
    }
  ],
  "receipts": [
    {
      "status": "0x1",
      "cumulativeGasUsed": "0x101e815",
      "logs": [
        {
          "address": "0x779877a7b0d9e8603169ddbd7836e478b4624789",
          "topics": [
            "0xddf252ad1be2c89b69c2b068fc378daa952ba7f163c4a11628f55a4df523b3ef",
            "0x000000000000000000000000c8e71f572cb1d509b4a905a2d424bddfdea9ace0",
            "0x0000000000000000000000009ddfaca8183c41ad55329bdeed9f6a8d53168b1b"
          ],
          "data": "0x00000000000000000000000000000000000000000000000029a2241af62c0000",
          "blockHash": "0xaad4de3bbb9f1663e9dedc368fa9f5435f3e26080556ee92e2503bae08d906eb",
          "blockNumber": "0x8f78a6",
          "blockTimestamp": "0x68ece180",
          "transactionHash": "0x45ff03ca9a9395b5c69ec0fe7eb4a918870ba85e65e43639f528828b21fe7165",
          "transactionIndex": "0x74",
          "logIndex": "0xc3",
          "removed": false
        },
        {
          "address": "0x779877a7b0d9e8603169ddbd7836e478b4624789",
          "topics": [
            "0xe19260aff97b920c7df27010903aeb9c8d2be5d310a2c67824cf3f15396e4c16",
            "0x000000000000000000000000c8e71f572cb1d509b4a905a2d424bddfdea9ace0",
            "0x0000000000000000000000009ddfaca8183c41ad55329bdeed9f6a8d53168b1b"
          ],
          "data": "0x00000000000000000000000000000000000000000000000029a2241af62c00000000000000000000000000000000000000000000000000000000000000000040000000000000000000000000000000000000000000000000000000000000002061bd854a87527c64aab59e536e0b97c13e8a221a93aae62cee425a7389d3a15e",
          "blockHash": "0xaad4de3bbb9f1663e9dedc368fa9f5435f3e26080556ee92e2503bae08d906eb",
          "blockNumber": "0x8f78a6",
          "blockTimestamp": "0x68ece180",
          "transactionHash": "0x45ff03ca9a9395b5c69ec0fe7eb4a918870ba85e65e43639f528828b21fe7165",
          "transactionIndex": "0x74",
          "logIndex": "0xc4",
          "removed": false
        },
        {
          "address": "0x9ddfaca8183c41ad55329bdeed9f6a8d53168b1b",
          "topics": [
            "0x1ced9348ff549fceab2ac57cd3a9de38edaaab274b725ee82c23e8fc8c4eec7a",
            "0x61bd854a87527c64aab59e536e0b97c13e8a221a93aae62cee425a7389d3a15e"
          ],
          "data": "0x000000000000000000000000000000000000000000000000000000000000000000000000000000000000000000000000000000000000000029a2241af62c0000",
          "blockHash": "0xaad4de3bbb9f1663e9dedc368fa9f5435f3e26080556ee92e2503bae08d906eb",
          "blockNumber": "0x8f78a6",
          "blockTimestamp": "0x68ece180",
          "transactionHash": "0x45ff03ca9a9395b5c69ec0fe7eb4a918870ba85e65e43639f528828b21fe7165",
          "transactionIndex": "0x74",
          "logIndex": "0xc5",
          "removed": false
        }
      ],
      "logsBloom": "0x00000004000000000000000000000000000000000020000000000000020000000000000000000000000000000000000000000000000000000000000000000000000000010000000000000008000000000000000000000000000020000020000008000000000000000000000000000000000000000000000000000210000040000000000000000000000000018200800000000020000000000000400000000000000000000000000000000000010000000000000000000000000004000000000000000002020000000000000000000000000000000000000100000000000000000010000000000000800000000000000000000000000000000000000000000000",
      "type": "0x2",
      "transactionHash": "0x45ff03ca9a9395b5c69ec0fe7eb4a918870ba85e65e43639f528828b21fe7165",
      "transactionIndex": "0x74",
      "blockHash": "0xaad4de3bbb9f1663e9dedc368fa9f5435f3e26080556ee92e2503bae08d906eb",
      "blockNumber": "0x8f78a6",
      "gasUsed": "0x133b1",
      "effectiveGasPrice": "0xf424f",
      "from": "0xc8e71f572cb1d509b4a905a2d424bddfdea9ace0",
      "to": "0x779877a7b0d9e8603169ddbd7836e478b4624789",
      "contractAddress": null
    }
  ],
  "libraries": [],
  "pending": [],
  "returns": {},
  "timestamp": 1760354688190,
  "chain": 11155111,
  "commit": "5438cde"
}